:100000000C9424010C947F010C9441010C94410147
:100010000C9441010C9441010C9441010C94410158
:100020000C9441010C9441010C9441010C94410148
:100030000C9441010C9441010C9441010C94410138
:100040000C9441010C9441010C94CA010C9441019F
:100050000C9441010C9441010C9441010C94410118
:100060000C9441010C944101000000000000005F6D
:1000700000000007000700147F147F14242A7F2A41
:10008000122313086462364955225000050300000C
:10009000001C2241000041221C0014083E081408E4
:1000A000083E0808005030000008080808080060F2
:1000B00060000020100804023E5149453E00427F86
:1000C000400042615149462141454B311814127F8D
:1000D0001027454545393C4A494930017109050316
:1000E0003649494936064949291E0036360000007E
:1000F0005636000008142241001414141414004150
:100100002214080201510906324979413E7E11113B
:10011000117E7F494949363E414141227F4141227A
:100120001C7F494949417F090909013E4149497AF2
:100130007F0808087F00417F41002040413F017F48
:10014000081422417F404040407F020C027F7F0420
:1001500008107F3E4141413E7F090909063E415159
:10016000215E7F09192946464949493101017F012C
:10017000013F4040403F1F2040201F3F4038403F4C
:100180006314081463070870080761514945430068
:100190007F41410002040810200041417F00040219
:1001A0000102044040404040000102040020545439
:1001B00054787F48444438384444442038444448C0
:1001C0007F3854545418087E0901020C5252523E92
:1001D0007F0804047800447D40002040443D007FB7
:1001E0001028440000417F40007C041804787C08FB
:1001F00004047838444444387C1414140808141453
:10020000187C7C080404084854545420043F44409B
:10021000203C4040207C1C2040201C3C4030403C86
:1002200044281028440C5050503C4464544C440022
:100230000836410000007F00000041360800100829
:10024000081008000000000011241FBECFEFD8E006
:10025000DEBFCDBF11E0A0E0B1E0E8ECFCE002C001
:1002600005900D92AA32B107D9F723E0AAE2B1E0D6
:1002700001C01D92A832B207E1F70E9444030C941A
:1002800062060C9400000E94D90360E080E00E94A6
:10029000D80462E082E091E00E94C50464E180E05D
:1002A0000E94D80461E089E091E00E94C50461E009
:1002B000809100010E9417046EE180E00E94D80442
:1002C00061E081E191E00E94C50461E0809101015B
:1002D0000E94170468E280E00E94D80461E088E18F
:1002E00091E00E94C50468E282E30E94D80461E0C4
:1002F00081E291E00E94C5040E94DD0408951F92EE
:100300000F920FB60F9211242F933F934F935F9349
:100310006F937F938F939F93AF93BF93EF93FF93CD
:100320000E94430168E282E30E94D80461E086E211
:1003300091E00E94C5040E94DD042FEF8BE792E953
:10034000215080409040E1F700C00000FF91EF9104
:10035000BF91AF919F918F917F916F915F914F91DD
:100360003F912F910F900FBE0F901F901895909373
:10037000C5008093C40088E98093C1008EE080931B
:10038000C2000895E0ECF0E0908195FFFDCF8093EE
:10039000C60008951F920F920FB60F9211242F934B
:1003A0003F934F935F936F937F938F939F93AF93FD
:1003B000BF93EF93FF938091C6008C3641F491E098
:1003C00098B99CE4909301019FEF9BB93AC08436A1
:1003D00031F418B894E4909301011BB88DC08133B7
:1003E00081F591E3909300019CE09BB92FEF30E7FA
:1003F00042E0215030404040E1F700C0000094E16D
:100400009BB95FEF60E772E0515060407040E1F7E8
:1004100000C0000094E29BB99FEF20E732E09150CA
:1004200020403040E1F700C0000094E49BB94FEF5A
:1004300050E762E0415050406040E1F700C00000EA
:10044000DEC0823309F058C092E3909300014CE083
:100450004BB97FEF90E722E0715090402040E1F7E8
:1004600000C0000034E13BB95FEF60E772E051503B
:1004700060407040E1F700C0000024E22BB99FEF1C
:1004800050E762E0915050406040E1F700C000004A
:1004900094E49BB97FEF50E762E0715050406040B8
:1004A000E1F700C000004BB97FEF40E752E0715028
:1004B00040405040E1F700C000003BB96FEF70E7EB
:1004C00032E0615070403040E1F700C000002BB9CD
:1004D0004FEF50E762E0415050406040E1F700C00C
:1004E00000009BB97FEF90E722E0715090402040E0
:1004F000E1F700C00000B4C0833309F080C093E38B
:10050000909300014CE04BB93FEF50E762E031506F
:1005100050406040E1F700C0000034E13BB97FEF9C
:1005200090E722E0715090402040E1F700C00000C9
:1005300024E22BB95FEF60E772E0515060407040F9
:10054000E1F700C0000094E49BB95FEF60E772E060
:10055000515060407040E1F700C000004BB95FEFC0
:1005600060E772E0515060407040E1F700C0000069
:100570003BB95FEF60E772E0515060407040E1F7D7
:1005800000C000002BB95FEF60E772E0515060409F
:100590007040E1F700C000009BB95FEF60E772E0D8
:1005A000515060407040E1F700C000004BB94FEF80
:1005B00050E762E0415050406040E1F700C0000069
:1005C0003BB97FEF30E742E0715030404040E1F707
:1005D00000C000002BB95FEF60E772E0515060404F
:1005E0007040E1F700C000009BB99FEF20E732E0C8
:1005F000915020403040E1F700C0000031C084330A
:1006000079F594E39093000194E29BB94FEF50E7A2
:1006100062E0415050406040E1F700C0000094E1CA
:100620009BB97FEF90E722E0715090402040E1F7C6
:1006300000C000009CE09BB93FEF40E752E0315022
:1006400040405040E1F700C0000094E09BB96FEFDC
:1006500070E792E0615070409040E1F700C0000008
:1006600090E00E94C201FF91EF91BF91AF919F91E5
:100670008F917F916F915F914F913F912F910F904B
:100680000FBE0F901F9018958FEF87B984B988E738
:100690008AB984E08BB98AE08093690083E08DBBDE
:1006A00083E884BD85E085BD17BC789487E690E03B
:1006B0000E94B7010E9498030E94430120E030E0AD
:1006C0004FE753E460912403709125038091260342
:1006D000909127030E94F50520E030E048EC52E4B9
:1006E0000E9403050E94750567BDE6CF2998662321
:1006F00011F02B9A15C02B9813C0AC01022E02C02A
:10070000559547950A94E2F740FF02C02C9A01C024
:100710002C982D9A2D982150310978F7299A08950F
:1007200027E030E090E0E9CF60E00E947603089592
:10073000CF93DF93219A229A239A249A259A2A9A70
:10074000299A83EC99E00197F1F700C000002A98FC
:100750008BE594E40197F1F700C000002A9A2998EC
:1007600081E20E94940383E10E94940386E00E9448
:10077000940382EC0E94940380E20E94940389E037
:100780000E94940380E80E94940380E40E949403F2
:10079000C8EFD1E061E080E00E9476032197D1F7B5
:1007A00088E00E9494038CE00E949403DF91CF9133
:1007B000089580E80E94940380E40E9494031092BC
:1007C000220310922303EAE2F1E082E293E0119225
:1007D000E817F907E1F70895262F2695269526951F
:1007E00090E034E5239F800D911D1124442379F07E
:1007F000FC01E65DFE4F677081E090E002C0880F6B
:10080000991F6A95E2F79081892B80830895FC01F6
:10081000E65DFE4F677081E090E002C0880F991F8F
:100820006A95E2F7809590818923808308955F928D
:100830006F927F928F929F92AF92BF92CF92DF92F0
:10084000EF92FF920F931F93CF93DF93562E262F95
:1008500030E04901880C991C880C991C820E931E6B
:10086000181419040CF05DC08901000F111F000F4E
:10087000111F000F111F021B130B612CA82EB12C8E
:10088000C50180975C01AA0CBB1CAA0CBB1CA80E5E
:10089000B91E0F2EF3E2CF2EF3E0DF2EF02D0F2E38
:1008A000F2E2EF2EF3E0FF2EF02D2DC0FE01249199
:1008B00030E0872D652D0E94F70402C035952795FD
:1008C0008A95E2F720FF0AC0F6016081670DF70103
:1008D000808141E0860D0E94EC0309C0F601608131
:1008E000670DF701808140E0860D0E94EC03739450
:1008F000872D90E080179107CCF26394862D90E0CD
:100900008815990574F410161106BCF7862D652D0F
:100910000E94F704E501C80FD11DC859DF4F712CA3
:10092000C5CF8091220391E0980F852D880F880F05
:10093000850D890F843518F4809322030EC0109220
:100940002203E3E2F3E0808191E0980F852D880F88
:10095000880F880F8519890F808380912303803346
:1009600020F01092220310922303DF91CF911F9168
:100970000F91FF90EF90DF90CF90BF90AF909F903E
:100980008F907F906F905F9008951F93CF93DF9328
:10099000EC018881882341F0162F2196612F0E9457
:1009A000170489918111FACFDF91CF911F9108959A
:1009B000809322036093230308950F931F93CF9393
:1009C000DF9380E80E94940380E40E949403CAE2CB
:1009D000D1E002E213E061E089910E947603C01742
:1009E000D107C9F7DF91CF911F910F910895991BFE
:1009F00079E004C0991F961708F0961B881F7A9516
:100A0000C9F7809508950E9417050C94BB050E94B4
:100A1000B40558F00E94AD0540F029F45F3F29F07D
:100A20000C94A40551110C94EF050C94AA050E9496
:100A3000CC0568F39923B1F3552391F3951B550B1E
:100A4000BB27AA2762177307840738F09F5F5F4FA1
:100A5000220F331F441FAA1FA9F335D00E2E3AF0E0
:100A6000E0E832D091505040E695001CCAF72BD0F8
:100A7000FE2F29D0660F771F881FBB1F2617370749
:100A80004807AB07B0E809F0BB0B802DBF01FF277B
:100A900093585F4F3AF09E3F510578F00C94A405AF
:100AA0000C94EF055F3FE4F3983ED4F38695779579
:100AB0006795B795F7959F5FC9F7880F911D969534
:100AC000879597F90895E1E0660F771F881FBB1F90
:100AD000621773078407BA0720F0621B730B840B3D
:100AE000BA0BEE1F88F7E09508950E94D40588F0B0
:100AF0009F5798F0B92F9927B751B0F0E1F0660FE2
:100B0000771F881F991F1AF0BA95C9F714C0B13022
:100B100091F00E94EE05B1E008950C94EE05672F68
:100B2000782F8827B85F39F0B93FCCF38695779551
:100B30006795B395D9F73EF490958095709561953A
:100B40007F4F8F4F9F4F089597F99F6780E870E020
:100B500060E008959FEF80EC089500240A94161633
:100B6000170618060906089500240A94121613069B
:100B7000140605060895092E0394000C11F4882329
:100B800052F0BB0F40F4BF2B11F460FF04C06F5F45
:100B90007F4F8F4F9F4F089557FD9058440F551F1B
:100BA00059F05F3F71F04795880F97FB991F61F0EF
:100BB0009F3F79F087950895121613061406551F66
:100BC000F2CF4695F1DF08C0161617061806991FD2
:100BD000F1CF86957105610508940895E894BB27C7
:100BE00066277727CB0197F908950E9408060C9491
:100BF000BB050E94AD0538F00E94B40520F0952396
:100C000011F00C94A4050C94AA0511240C94EF0582
:100C10000E94CC0570F3959FC1F3950F50E0551FCE
:100C2000629FF001729FBB27F00DB11D639FAA2741
:100C3000F00DB11DAA1F649F6627B00DA11D661F90
:100C4000829F2227B00DA11D621F739FB00DA11DB1
:100C5000621F839FA00D611D221F749F3327A00D6B
:100C6000611D231F849F600D211D822F762F6A2F07
:100C700011249F5750409AF0F1F088234AF0EE0F6C
:100C8000FF1FBB1F661F771F881F91505040A9F799
:100C90009E3F510580F00C94A4050C94EF055F3F36
:100CA000E4F3983ED4F3869577956795B795F795D5
:100CB000E7959F5FC1F7FE2B880F911D969587954D
:080CC00097F90895F894FFCFA5
:100CC80020204D6564436172004D6F746F723A2045
:100CD800004D6F646F3A200053656E736F723A204F
:0A0CE800004F464620004F4E20004A
:00000001FF
